Component: ARM Compiler 5.06 update 6 (build 750) Tool: armlink [4d35ed]

==============================================================================

Section Cross References

    startup_stm32f103xb.o(RESET) refers to startup_stm32f103xb.o(STACK) for __initial_sp
    startup_stm32f103xb.o(RESET) refers to startup_stm32f103xb.o(.text) for Reset_Handler
    startup_stm32f103xb.o(RESET) refers to stm32f1xx_it.o(i.NMI_Handler) for NMI_Handler
    startup_stm32f103xb.o(RESET) refers to stm32f1xx_it.o(i.HardFault_Handler) for HardFault_Handler
    startup_stm32f103xb.o(RESET) refers to stm32f1xx_it.o(i.MemManage_Handler) for MemManage_Handler
    startup_stm32f103xb.o(RESET) refers to stm32f1xx_it.o(i.BusFault_Handler) for BusFault_Handler
    startup_stm32f103xb.o(RESET) refers to stm32f1xx_it.o(i.UsageFault_Handler) for UsageFault_Handler
    startup_stm32f103xb.o(RESET) refers to stm32f1xx_it.o(i.SVC_Handler) for SVC_Handler
    startup_stm32f103xb.o(RESET) refers to stm32f1xx_it.o(i.DebugMon_Handler) for DebugMon_Handler
    startup_stm32f103xb.o(RESET) refers to stm32f1xx_it.o(i.PendSV_Handler) for PendSV_Handler
    startup_stm32f103xb.o(RESET) refers to stm32f1xx_it.o(i.SysTick_Handler) for SysTick_Handler
    startup_stm32f103xb.o(RESET) refers to stm32f1xx_it.o(i.USART3_IRQHandler) for USART3_IRQHandler
    startup_stm32f103xb.o(.text) refers to system_stm32f1xx.o(i.SystemInit) for SystemInit
    startup_stm32f103xb.o(.text) refers to entry.o(.ARM.Collect$$$$00000000) for __main
    main.o(i.SystemClock_Config) refers to memseta.o(.text) for __aeabi_memclr4
    main.o(i.SystemClock_Config) refers to stm32f1xx_hal_rcc.o(i.HAL_RCC_OscConfig) for HAL_RCC_OscConfig
    main.o(i.SystemClock_Config) refers to stm32f1xx_hal_rcc.o(i.HAL_RCC_ClockConfig) for HAL_RCC_ClockConfig
    main.o(i.SystemClock_Config) refers to stm32f1xx_hal_rcc_ex.o(i.HAL_RCCEx_PeriphCLKConfig) for HAL_RCCEx_PeriphCLKConfig
==============================================================================

Removing Unused input sections from the image.

    Removing startup_stm32f103xb.o(HEAP), (512 bytes).
    Removing main.o(.rev16_text), (4 bytes).
    Removing main.o(.revsh_text), (4 bytes).
    Removing main.o(.rrx_text), (6 bytes).
    Removing gpio.o(.rev16_text), (4 bytes).
    Removing gpio.o(.revsh_text), (4 bytes).
    Removing gpio.o(.rrx_text), (6 bytes).
    Removing gpio.o(i.HAL_GPIO_EXTI_Callback), (12 bytes).
    Removing adc.o(.rev16_text), (4 bytes).
    Removing adc.o(.revsh_text), (4 bytes).
    Removing adc.o(.rrx_text), (6 bytes).
    Removing adc.o(i.HAL_ADC_MspDeInit), (40 bytes).
    Removing i2c.o(.rev16_text), (4 bytes).
    Removing i2c.o(.revsh_text), (4 bytes).
    Removing i2c.o(.rrx_text), (6 bytes).
    Removing i2c.o(i.HAL_I2C_MspDeInit), (56 bytes).
    Removing spi.o(.rev16_text), (4 bytes).
    Removing spi.o(.revsh_text), (4 bytes).
==============================================================================

Image Symbol Table

    Local Symbols

    Symbol Name                              Value     Ov Type        Size  Object(Section)

    ../Core/Src/adc.c                        0x00000000   Number         0  adc.o ABSOLUTE
    ../Core/Src/gpio.c                       0x00000000   Number         0  gpio.o ABSOLUTE
    ../Core/Src/i2c.c                        0x00000000   Number         0  i2c.o ABSOLUTE
    ../Core/Src/main.c                       0x00000000   Number         0  main.o ABSOLUTE
    ../Core/Src/spi.c                        0x00000000   Number         0  spi.o ABSOLUTE
    ../Core/Src/stm32f1xx_hal_msp.c          0x00000000   Number         0  stm32f1xx_hal_msp.o ABSOLUTE
    ../Core/Src/stm32f1xx_it.c               0x00000000   Number         0  stm32f1xx_it.o ABSOLUTE
    ../Core/Src/system_stm32f1xx.c           0x00000000   Number         0  system_stm32f1xx.o ABSOLUTE
    ../Core/Src/tim.c                        0x00000000   Number         0  tim.o ABSOLUTE
    ../Core/Src/usart.c                      0x00000000   Number         0  usart.o ABSOLUTE
    ../Drivers/STM32F1xx_HAL_Driver/Src/stm32f1xx_hal.c 0x00000000   Number         0  stm32f1xx_hal.o ABSOLUTE
    ../Drivers/STM32F1xx_HAL_Driver/Src/stm32f1xx_hal_adc.c 0x00000000   Number         0  stm32f1xx_hal_adc.o ABSOLUTE
    ../Drivers/STM32F1xx_HAL_Driver/Src/stm32f1xx_hal_adc_ex.c 0x00000000   Number         0  stm32f1xx_hal_adc_ex.o ABSOLUTE
    ../Drivers/STM32F1xx_HAL_Driver/Src/stm32f1xx_hal_cortex.c 0x00000000   Number         0  stm32f1xx_hal_cortex.o ABSOLUTE
    ../Drivers/STM32F1xx_HAL_Driver/Src/stm32f1xx_hal_dma.c 0x00000000   Number         0  stm32f1xx_hal_dma.o ABSOLUTE
    ../Drivers/STM32F1xx_HAL_Driver/Src/stm32f1xx_hal_exti.c 0x00000000   Number         0  stm32f1xx_hal_exti.o ABSOLUTE
    ../Drivers/STM32F1xx_HAL_Driver/Src/stm32f1xx_hal_flash.c 0x00000000   Number         0  stm32f1xx_hal_flash.o ABSOLUTE
    ../Drivers/STM32F1xx_HAL_Driver/Src/stm32f1xx_hal_flash_ex.c 0x00000000   Number         0  stm32f1xx_hal_flash_ex.o ABSOLUTE
    ../Drivers/STM32F1xx_HAL_Driver/Src/stm32f1xx_hal_gpio.c 0x00000000   Number         0  stm32f1xx_hal_gpio.o ABSOLUTE
    ../Drivers/STM32F1xx_HAL_Driver/Src/stm32f1xx_hal_gpio_ex.c 0x00000000   Number         0  stm32f1xx_hal_gpio_ex.o ABSOLUTE
    ../Drivers/STM32F1xx_HAL_Driver/Src/stm32f1xx_hal_i2c.c 0x00000000   Number         0  stm32f1xx_hal_i2c.o ABSOLUTE
    ../Drivers/STM32F1xx_HAL_Driver/Src/stm32f1xx_hal_pwr.c 0x00000000   Number         0  stm32f1xx_hal_pwr.o ABSOLUTE
    ../Drivers/STM32F1xx_HAL_Driver/Src/stm32f1xx_hal_rcc.c 0x00000000   Number         0  stm32f1xx_hal_rcc.o ABSOLUTE
    ../Drivers/STM32F1xx_HAL_Driver/Src/stm32f1xx_hal_rcc_ex.c 0x00000000   Number         0  stm32f1xx_hal_rcc_ex.o ABSOLUTE
    ../Drivers/STM32F1xx_HAL_Driver/Src/stm32f1xx_hal_spi.c 0x00000000   Number         0  stm32f1xx_hal_spi.o ABSOLUTE
    ../Drivers/STM32F1xx_HAL_Driver/Src/stm32f1xx_hal_tim.c 0x00000000   Number         0  stm32f1xx_hal_tim.o ABSOLUTE
    ../Drivers/STM32F1xx_HAL_Driver/Src/stm32f1xx_hal_tim_ex.c 0x00000000   Number         0  stm32f1xx_hal_tim_ex.o ABSOLUTE
    ../Drivers/STM32F1xx_HAL_Driver/Src/stm32f1xx_hal_uart.c 0x00000000   Number         0  stm32f1xx_hal_uart.o ABSOLUTE
    ../clib/microlib/division.c              0x00000000   Number         0  uldiv.o ABSOLUTE
    ../clib/microlib/division.c              0x00000000   Number         0  uidiv.o ABSOLUTE
    ../clib/microlib/init/entry.s            0x00000000   Number         0  entry7b.o ABSOLUTE
    ../clib/microlib/init/entry.s            0x00000000   Number         0  entry8a.o ABSOLUTE
    ../clib/microlib/init/entry.s            0x00000000   Number         0  entry10a.o ABSOLUTE
    ../clib/microlib/init/entry.s            0x00000000   Number         0  entry9a.o ABSOLUTE
    ../clib/microlib/init/entry.s            0x00000000   Number         0  entry5.o ABSOLUTE
    ../clib/microlib/init/entry.s            0x00000000   Number         0  entry.o ABSOLUTE
    ../clib/microlib/init/entry.s            0x00000000   Number         0  entry10b.o ABSOLUTE
    ../clib/microlib/init/entry.s            0x00000000   Number         0  entry8b.o ABSOLUTE
    ../clib/microlib/init/entry.s            0x00000000   Number         0  entry9b.o ABSOLUTE
    ../clib/microlib/init/entry.s            0x00000000   Number         0  entry11b.o ABSOLUTE
    ../clib/microlib/init/entry.s            0x00000000   Number         0  entry2.o ABSOLUTE
    ../clib/microlib/init/entry.s            0x00000000   Number         0  entry7a.o ABSOLUTE
    ../clib/microlib/init/entry.s            0x00000000   Number         0  entry11a.o ABSOLUTE
    ../clib/microlib/longlong.c              0x00000000   Number         0  llushr.o ABSOLUTE
    ../clib/microlib/longlong.c              0x00000000   Number         0  llshl.o ABSOLUTE
    ../clib/microlib/longlong.c              0x00000000   Number         0  llsshr.o ABSOLUTE
    ../clib/microlib/printf/printf.c         0x00000000   Number         0  printf3.o ABSOLUTE
    ../clib/microlib/printf/printf.c         0x00000000   Number         0  printf4.o ABSOLUTE
    ../clib/microlib/printf/printf.c         0x00000000   Number         0  printf5.o ABSOLUTE
    ../clib/microlib/printf/printf.c         0x00000000   Number         0  printf6.o ABSOLUTE
    ../clib/microlib/printf/printf.c         0x00000000   Number         0  printf7.o ABSOLUTE
    ../clib/microlib/printf/printf.c         0x00000000   Number         0  printf8.o ABSOLUTE
    ../clib/microlib/printf/printf.c         0x00000000   Number         0  printfb.o ABSOLUTE
    ../clib/microlib/printf/printf.c         0x00000000   Number         0  printf0.o ABSOLUTE
    ../clib/microlib/printf/printf.c         0x00000000   Number         0  printfa.o ABSOLUTE
    ../clib/microlib/printf/printf.c         0x00000000   Number         0  printf1.o ABSOLUTE
    ../clib/microlib/printf/printf.c         0x00000000   Number         0  printf2.o ABSOLUTE
    ../clib/microlib/printf/stubs.s          0x00000000   Number         0  stubs.o ABSOLUTE
    ../clib/microlib/stdio/streams.c         0x00000000   Number         0  stdout.o ABSOLUTE
    ../clib/microlib/string/memcpy.c         0x00000000   Number         0  memcpya.o ABSOLUTE
    ../clib/microlib/string/memcpy.c         0x00000000   Number         0  memcpyb.o ABSOLUTE
    ../clib/microlib/string/memset.c         0x00000000   Number         0  memseta.o ABSOLUTE
    ../clib/microlib/string/strstr.c         0x00000000   Number         0  strstr.o ABSOLUTE
    ../clib/microlib/stubs.s                 0x00000000   Number         0  iusefp.o ABSOLUTE
    ../fplib/microlib/fpadd.c                0x00000000   Number         0  dadd.o ABSOLUTE
    ../fplib/microlib/fpdiv.c                0x00000000   Number         0  ddiv.o ABSOLUTE
    ../fplib/microlib/fpdiv.c                0x00000000   Number         0  fdiv.o ABSOLUTE
    ../fplib/microlib/fpepilogue.c           0x00000000   Number         0  depilogue.o ABSOLUTE
    ../fplib/microlib/fpepilogue.c           0x00000000   Number         0  fepilogue.o ABSOLUTE
    ../fplib/microlib/fpfix.c                0x00000000   Number         0  dfixul.o ABSOLUTE
    ../fplib/microlib/fpflt.c                0x00000000   Number         0  ffltui.o ABSOLUTE
    ../fplib/microlib/fpmul.c                0x00000000   Number         0  dmul.o ABSOLUTE
    ..\Core\Src\adc.c                        0x00000000   Number         0  adc.o ABSOLUTE
    ..\Core\Src\gpio.c                       0x00000000   Number         0  gpio.o ABSOLUTE
    ..\Core\Src\i2c.c                        0x00000000   Number         0  i2c.o ABSOLUTE
    ..\Core\Src\main.c                       0x00000000   Number         0  main.o ABSOLUTE
    ..\Core\Src\spi.c                        0x00000000   Number         0  spi.o ABSOLUTE
    ..\Core\Src\stm32f1xx_hal_msp.c          0x00000000   Number         0  stm32f1xx_hal_msp.o ABSOLUTE
    ..\Core\Src\stm32f1xx_it.c               0x00000000   Number         0  stm32f1xx_it.o ABSOLUTE
    ..\Core\Src\system_stm32f1xx.c           0x00000000   Number         0  system_stm32f1xx.o ABSOLUTE
    ..\Core\Src\tim.c                        0x00000000   Number         0  tim.o ABSOLUTE
    ..\Core\Src\usart.c                      0x00000000   Number         0  usart.o ABSOLUTE
    ..\Drivers\STM32F1xx_HAL_Driver\Src\stm32f1xx_hal.c 0x00000000   Number         0  stm32f1xx_hal.o ABSOLUTE
    ..\Drivers\STM32F1xx_HAL_Driver\Src\stm32f1xx_hal_adc.c 0x00000000   Number         0  stm32f1xx_hal_adc.o ABSOLUTE
    ..\Drivers\STM32F1xx_HAL_Driver\Src\stm32f1xx_hal_adc_ex.c 0x00000000   Number         0  stm32f1xx_hal_adc_ex.o ABSOLUTE
    ..\Drivers\STM32F1xx_HAL_Driver\Src\stm32f1xx_hal_cortex.c 0x00000000   Number         0  stm32f1xx_hal_cortex.o ABSOLUTE
    ..\Drivers\STM32F1xx_HAL_Driver\Src\stm32f1xx_hal_dma.c 0x00000000   Number         0  stm32f1xx_hal_dma.o ABSOLUTE
    ..\Drivers\STM32F1xx_HAL_Driver\Src\stm32f1xx_hal_exti.c 0x00000000   Number         0  stm32f1xx_hal_exti.o ABSOLUTE
    ..\Drivers\STM32F1xx_HAL_Driver\Src\stm32f1xx_hal_flash.c 0x00000000   Number         0  stm32f1xx_hal_flash.o ABSOLUTE
    ..\Drivers\STM32F1xx_HAL_Driver\Src\stm32f1xx_hal_flash_ex.c 0x00000000   Number         0  stm32f1xx_hal_flash_ex.o ABSOLUTE
    ..\Drivers\STM32F1xx_HAL_Driver\Src\stm32f1xx_hal_gpio.c 0x00000000   Number         0  stm32f1xx_hal_gpio.o ABSOLUTE
    ..\Drivers\STM32F1xx_HAL_Driver\Src\stm32f1xx_hal_gpio_ex.c 0x00000000   Number         0  stm32f1xx_hal_gpio_ex.o ABSOLUTE
    ..\Drivers\STM32F1xx_HAL_Driver\Src\stm32f1xx_hal_i2c.c 0x00000000   Number         0  stm32f1xx_hal_i2c.o ABSOLUTE
    ..\Drivers\STM32F1xx_HAL_Driver\Src\stm32f1xx_hal_pwr.c 0x00000000   Number         0  stm32f1xx_hal_pwr.o ABSOLUTE
    ..\Drivers\STM32F1xx_HAL_Driver\Src\stm32f1xx_hal_rcc.c 0x00000000   Number         0  stm32f1xx_hal_rcc.o ABSOLUTE
    ..\Drivers\STM32F1xx_HAL_Driver\Src\stm32f1xx_hal_rcc_ex.c 0x00000000   Number         0  stm32f1xx_hal_rcc_ex.o ABSOLUTE
    ..\Drivers\STM32F1xx_HAL_Driver\Src\stm32f1xx_hal_spi.c 0x00000000   Number         0  stm32f1xx_hal_spi.o ABSOLUTE
    ..\Drivers\STM32F1xx_HAL_Driver\Src\stm32f1xx_hal_tim.c 0x00000000   Number         0  stm32f1xx_hal_tim.o ABSOLUTE
    ..\Drivers\STM32F1xx_HAL_Driver\Src\stm32f1xx_hal_tim_ex.c 0x00000000   Number         0  stm32f1xx_hal_tim_ex.o ABSOLUTE
    ..\Drivers\STM32F1xx_HAL_Driver\Src\stm32f1xx_hal_uart.c 0x00000000   Number         0  stm32f1xx_hal_uart.o ABSOLUTE
    ..\User\Process\process.c                0x00000000   Number         0  process.o ABSOLUTE
    ..\User\RC522\rc522.c                    0x00000000   Number         0  rc522.o ABSOLUTE
    ..\User\dht11\dht11.c                    0x00000000   Number         0  dht11.o ABSOLUTE
    ..\User\flash\flash.c                    0x00000000   Number         0  flash.o ABSOLUTE
    ..\User\light\sensor_light.c             0x00000000   Number         0  sensor_light.o ABSOLUTE
    ..\User\oled\oled.c                      0x00000000   Number         0  oled.o ABSOLUTE
    ..\User\xiaoyi_wifi\esp8266.c            0x00000000   Number         0  esp8266.o ABSOLUTE
    ..\User\xiaoyi_wifi\mqtt.c               0x00000000   Number         0  mqtt.o ABSOLUTE
    ..\User\xiaoyi_wifi\tcp.c                0x00000000   Number         0  tcp.o ABSOLUTE
    ..\\User\\Process\\process.c             0x00000000   Number         0  process.o ABSOLUTE
    ..\\User\\RC522\\rc522.c                 0x00000000   Number         0  rc522.o ABSOLUTE
    ..\\User\\dht11\\dht11.c                 0x00000000   Number         0  dht11.o ABSOLUTE
    ..\\User\\flash\\flash.c                 0x00000000   Number         0  flash.o ABSOLUTE
    ..\\User\\light\\sensor_light.c          0x00000000   Number         0  sensor_light.o ABSOLUTE
    ..\\User\\oled\\oled.c                   0x00000000   Number         0  oled.o ABSOLUTE
    ..\\User\\xiaoyi_wifi\\esp8266.c         0x00000000   Number         0  esp8266.o ABSOLUTE
    ..\\User\\xiaoyi_wifi\\mqtt.c            0x00000000   Number         0  mqtt.o ABSOLUTE
    ..\\User\\xiaoyi_wifi\\tcp.c             0x00000000   Number         0  tcp.o ABSOLUTE
    cdrcmple.s                               0x00000000   Number         0  cdrcmple.o ABSOLUTE
    dc.s                                     0x00000000   Number         0  dc.o ABSOLUTE
    handlers.s                               0x00000000   Number         0  handlers.o ABSOLUTE
    init.s                                   0x00000000   Number         0  init.o ABSOLUTE
    startup_stm32f103xb.s                    0x00000000   Number         0  startup_stm32f103xb.o ABSOLUTE
    RESET                                    0x08000000   Section      236  startup_stm32f103xb.o(RESET)
    .ARM.Collect$$$$00000000                 0x080000ec   Section        0  entry.o(.ARM.Collect$$$$00000000)
    .ARM.Collect$$$$00000001                 0x080000ec   Section        4  entry2.o(.ARM.Collect$$$$00000001)
    .ARM.Collect$$$$00000004                 0x080000f0   Section        4  entry5.o(.ARM.Collect$$$$00000004)
    .ARM.Collect$$$$00000008                 0x080000f4   Section        0  entry7b.o(.ARM.Collect$$$$00000008)
    .ARM.Collect$$$$0000000A                 0x080000f4   Section        0  entry8b.o(.ARM.Collect$$$$0000000A)
    .ARM.Collect$$$$0000000B                 0x080000f4   Section        8  entry9a.o(.ARM.Collect$$$$0000000B)
    .ARM.Collect$$$$0000000D                 0x080000fc   Section        0  entry10a.o(.ARM.Collect$$$$0000000D)
    .ARM.Collect$$$$0000000F                 0x080000fc   Section        0  entry11a.o(.ARM.Collect$$$$0000000F)
    .ARM.Collect$$$$00002712                 0x080000fc   Section        4  entry2.o(.ARM.Collect$$$$00002712)
    __lit__00000000                          0x080000fc   Data           4  entry2.o(.ARM.Collect$$$$00002712)
    .text                                    0x08000100   Section       36  startup_stm32f103xb.o(.text)
    .text                                    0x08000124   Section        0  memcpya.o(.text)
    .text                                    0x08000148   Section        0  memseta.o(.text)
    .text                                    0x0800016c   Section        0  strstr.o(.text)
    .text                                    0x08000190   Section        0  uidiv.o(.text)
    .text                                    0x080001bc   Section       36  init.o(.text)
    i.ADC_ConversionStop_Disable             0x080001e0   Section        0  stm32f1xx_hal_adc.o(i.ADC_ConversionStop_Disable)
    i.BusFault_Handler                       0x0800022c   Section        0  stm32f1xx_it.o(i.BusFault_Handler)
    i.DHT11_Mode_Out_PP                      0x08000230   Section        0  dht11.o(i.DHT11_Mode_Out_PP)
    DHT11_Mode_Out_PP                        0x08000231   Thumb Code    24  dht11.o(i.DHT11_Mode_Out_PP)
    i.DebugMon_Handler                       0x0800024c   Section        0  stm32f1xx_it.o(i.DebugMon_Handler)
    i.ESP8266_ATE0                           0x08000250   Section        0  esp8266.o(i.ESP8266_ATE0)
    i.ESP8266_JoinAP                         0x08000298   Section        0  esp8266.o(i.ESP8266_JoinAP)
    i.ESP8266_MQTTCONN                       0x080002d4   Section        0  esp8266.o(i.ESP8266_MQTTCONN)
    i.ESP8266_MQTTPUB                        0x08000314   Section        0  esp8266.o(i.ESP8266_MQTTPUB)
    i.ESP8266_MQTTSUB                        0x0800035c   Section        0  esp8266.o(i.ESP8266_MQTTSUB)
    i.ESP8266_MQTTUSERCFG                    0x08000394   Section        0  esp8266.o(i.ESP8266_MQTTUSERCFG)
    i.ESP8266_Net_Mode_Choose                0x080003e8   Section        0  esp8266.o(i.ESP8266_Net_Mode_Choose)
    i.ESP8266_STA_MQTTClient_Init            0x08000448   Section        0  mqtt.o(i.ESP8266_STA_MQTTClient_Init)
    i.ESP8266_Send_AT_Cmd                    0x080005c0   Section        0  esp8266.o(i.ESP8266_Send_AT_Cmd)
    i.Error_Handler                          0x08000640   Section        0  main.o(i.Error_Handler)
    i.HAL_ADC_ConfigChannel                  0x08000644   Section        0  stm32f1xx_hal_adc.o(i.HAL_ADC_ConfigChannel)
    i.HAL_ADC_Init                           0x08000740   Section        0  stm32f1xx_hal_adc.o(i.HAL_ADC_Init)
    i.HAL_ADC_MspInit                        0x0800085c   Section        0  adc.o(i.HAL_ADC_MspInit)
    i.HAL_DMA_Abort_IT                       0x080008b4   Section        0  stm32f1xx_hal_dma.o(i.HAL_DMA_Abort_IT)
    i.HAL_Delay                              0x0800094c   Section        0  stm32f1xx_hal.o(i.HAL_Delay)
    i.HAL_GPIO_Init                          0x08000970   Section        0  stm32f1xx_hal_gpio.o(i.HAL_GPIO_Init)
    i.HAL_GPIO_TogglePin                     0x08000b50   Section        0  stm32f1xx_hal_gpio.o(i.HAL_GPIO_TogglePin)
    i.HAL_GPIO_WritePin                      0x08000b60   Section        0  stm32f1xx_hal_gpio.o(i.HAL_GPIO_WritePin)
    i.HAL_GetTick                            0x08000b6c   Section        0  stm32f1xx_hal.o(i.HAL_GetTick)
    i.HAL_I2C_Init                           0x08000b78   Section        0  stm32f1xx_hal_i2c.o(i.HAL_I2C_Init)
    i.HAL_I2C_Mem_Write                      0x08000d00   Section        0  stm32f1xx_hal_i2c.o(i.HAL_I2C_Mem_Write)
    i.HAL_I2C_MspInit                        0x08000e30   Section        0  i2c.o(i.HAL_I2C_MspInit)
    i.HAL_IncTick                            0x08000ea0   Section        0  stm32f1xx_hal.o(i.HAL_IncTick)
    i.HAL_Init                               0x08000eb0   Section        0  stm32f1xx_hal.o(i.HAL_Init)
    i.HAL_InitTick                           0x08000ed4   Section        0  stm32f1xx_hal.o(i.HAL_InitTick)
    i.HAL_MspInit                            0x08000f14   Section        0  stm32f1xx_hal_msp.o(i.HAL_MspInit)
    i.HAL_NVIC_EnableIRQ                     0x08000f50   Section        0  stm32f1xx_hal_cortex.o(i.HAL_NVIC_EnableIRQ)
    i.HAL_NVIC_SetPriority                   0x08000f6c   Section        0  stm32f1xx_hal_cortex.o(i.HAL_NVIC_SetPriority)
    i.HAL_NVIC_SetPriorityGrouping           0x08000fac   Section        0  stm32f1xx_hal_cortex.o(i.HAL_NVIC_SetPriorityGrouping)
    i.HAL_RCCEx_PeriphCLKConfig              0x08000fd0   Section        0  stm32f1xx_hal_rcc_ex.o(i.HAL_RCCEx_PeriphCLKConfig)
    i.HAL_RCC_ClockConfig                    0x080010bc   Section        0  stm32f1xx_hal_rcc.o(i.HAL_RCC_ClockConfig)
    i.HAL_RCC_GetPCLK1Freq                   0x080011e8   Section        0  stm32f1xx_hal_rcc.o(i.HAL_RCC_GetPCLK1Freq)
    i.HAL_RCC_GetPCLK2Freq                   0x08001208   Section        0  stm32f1xx_hal_rcc.o(i.HAL_RCC_GetPCLK2Freq)
    i.HAL_RCC_GetSysClockFreq                0x08001228   Section        0  stm32f1xx_hal_rcc.o(i.HAL_RCC_GetSysClockFreq)
    i.HAL_RCC_OscConfig                      0x08001294   Section        0  stm32f1xx_hal_rcc.o(i.HAL_RCC_OscConfig)
    i.HAL_SPI_Init                           0x080015b4   Section        0  stm32f1xx_hal_spi.o(i.HAL_SPI_Init)
    i.HAL_SPI_MspInit                        0x08001668   Section        0  spi.o(i.HAL_SPI_MspInit)
    i.HAL_SYSTICK_Config                     0x080016dc   Section        0  stm32f1xx_hal_cortex.o(i.HAL_SYSTICK_Config)
    i.HAL_TIMEx_MasterConfigSynchronization  0x08001704   Section        0  stm32f1xx_hal_tim_ex.o(i.HAL_TIMEx_MasterConfigSynchronization)
    i.HAL_TIM_Base_Init                      0x0800176c   Section        0  stm32f1xx_hal_tim.o(i.HAL_TIM_Base_Init)
    i.HAL_TIM_Base_MspInit                   0x080017c8   Section        0  tim.o(i.HAL_TIM_Base_MspInit)
    i.HAL_TIM_Base_Start_IT                  0x080017f0   Section        0  stm32f1xx_hal_tim.o(i.HAL_TIM_Base_Start_IT)
    i.HAL_TIM_ConfigClockSource              0x08001848   Section        0  stm32f1xx_hal_tim.o(i.HAL_TIM_ConfigClockSource)
    i.HAL_TIM_MspPostInit                    0x08001920   Section        0  tim.o(i.HAL_TIM_MspPostInit)
    i.HAL_TIM_OC_ConfigChannel               0x0800196c   Section        0  stm32f1xx_hal_tim.o(i.HAL_TIM_OC_ConfigChannel)
    i.HAL_TIM_OC_Init                        0x080019b8   Section        0  stm32f1xx_hal_tim.o(i.HAL_TIM_OC_Init)
    i.HAL_TIM_OC_MspInit                     0x08001a14   Section        0  tim.o(i.HAL_TIM_OC_MspInit)
    i.HAL_TIM_PWM_Start                      0x08001a3c   Section        0  stm32f1xx_hal_tim.o(i.HAL_TIM_PWM_Start)
    i.HAL_UART_ErrorCallback                 0x08001ad8   Section        0  stm32f1xx_hal_uart.o(i.HAL_UART_ErrorCallback)
    i.HAL_UART_IRQHandler                    0x08001adc   Section        0  stm32f1xx_hal_uart.o(i.HAL_UART_IRQHandler)
    i.HAL_UART_Init                          0x08001c38   Section        0  stm32f1xx_hal_uart.o(i.HAL_UART_Init)
    i.HAL_UART_MspInit                       0x08001c9c   Section        0  usart.o(i.HAL_UART_MspInit)
    i.HAL_UART_Receive_IT                    0x08001d7c   Section        0  stm32f1xx_hal_uart.o(i.HAL_UART_Receive_IT)
    i.HAL_UART_RxCpltCallback                0x08001dd0   Section        0  usart.o(i.HAL_UART_RxCpltCallback)
    i.HAL_UART_Transmit                      0x08001e2c   Section        0  stm32f1xx_hal_uart.o(i.HAL_UART_Transmit)
    i.HAL_UART_TxCpltCallback                0x08001ede   Section        0  stm32f1xx_hal_uart.o(i.HAL_UART_TxCpltCallback)
    i.HardFault_Handler                      0x08001ee0   Section        0  stm32f1xx_it.o(i.HardFault_Handler)
    i.I2C_IsAcknowledgeFailed                0x08001ee2   Section        0  stm32f1xx_hal_i2c.o(i.I2C_IsAcknowledgeFailed)
    I2C_IsAcknowledgeFailed                  0x08001ee3   Thumb Code    46  stm32f1xx_hal_i2c.o(i.I2C_IsAcknowledgeFailed)
    i.I2C_RequestMemoryWrite                 0x08001f10   Section        0  stm32f1xx_hal_i2c.o(i.I2C_RequestMemoryWrite)
    I2C_RequestMemoryWrite                   0x08001f11   Thumb Code   162  stm32f1xx_hal_i2c.o(i.I2C_RequestMemoryWrite)
    i.I2C_WaitOnBTFFlagUntilTimeout          0x08001fb8   Section        0  stm32f1xx_hal_i2c.o(i.I2C_WaitOnBTFFlagUntilTimeout)
    I2C_WaitOnBTFFlagUntilTimeout            0x08001fb9   Thumb Code    76  stm32f1xx_hal_i2c.o(i.I2C_WaitOnBTFFlagUntilTimeout)
    i.I2C_WaitOnFlagUntilTimeout             0x08002004   Section        0  stm32f1xx_hal_i2c.o(i.I2C_WaitOnFlagUntilTimeout)
    I2C_WaitOnFlagUntilTimeout               0x08002005   Thumb Code   104  stm32f1xx_hal_i2c.o(i.I2C_WaitOnFlagUntilTimeout)
    i.I2C_WaitOnMasterAddressFlagUntilTimeout 0x0800206c   Section        0  stm32f1xx_hal_i2c.o(i.I2C_WaitOnMasterAddressFlagUntilTimeout)
    I2C_WaitOnMasterAddressFlagUntilTimeout  0x0800206d   Thumb Code   150  stm32f1xx_hal_i2c.o(i.I2C_WaitOnMasterAddressFlagUntilTimeout)
    i.I2C_WaitOnTXEFlagUntilTimeout          0x08002102   Section        0  stm32f1xx_hal_i2c.o(i.I2C_WaitOnTXEFlagUntilTimeout)
    I2C_WaitOnTXEFlagUntilTimeout            0x08002103   Thumb Code    76  stm32f1xx_hal_i2c.o(i.I2C_WaitOnTXEFlagUntilTimeout)
    i.MQTT_SendString                        0x0800214e   Section        0  esp8266.o(i.MQTT_SendString)
    i.MX_ADC1_Init                           0x08002154   Section        0  adc.o(i.MX_ADC1_Init)
    i.MX_GPIO_Init                           0x080021a4   Section        0  gpio.o(i.MX_GPIO_Init)
    i.MX_I2C1_Init                           0x08002294   Section        0  i2c.o(i.MX_I2C1_Init)
    i.MX_SPI2_Init                           0x080022d4   Section        0  spi.o(i.MX_SPI2_Init)
    i.MX_TIM3_Init                           0x08002318   Section        0  tim.o(i.MX_TIM3_Init)
    i.MX_TIM4_Init                           0x08002380   Section        0  tim.o(i.MX_TIM4_Init)
    i.MX_USART1_UART_Init                    0x080023f4   Section        0  usart.o(i.MX_USART1_UART_Init)
    i.MX_USART3_UART_Init                    0x0800242c   Section        0  usart.o(i.MX_USART3_UART_Init)
    i.MemManage_Handler                      0x08002464   Section        0  stm32f1xx_it.o(i.MemManage_Handler)
    i.NMI_Handler                            0x08002466   Section        0  stm32f1xx_it.o(i.NMI_Handler)
    i.PendSV_Handler                         0x08002468   Section        0  stm32f1xx_it.o(i.PendSV_Handler)
    i.SVC_Handler                            0x0800246a   Section        0  stm32f1xx_it.o(i.SVC_Handler)
    i.SysTick_Handler                        0x0800246c   Section        0  stm32f1xx_it.o(i.SysTick_Handler)
    i.SystemClock_Config                     0x08002470   Section        0  main.o(i.SystemClock_Config)
    i.SystemInit                             0x080024d0   Section        0  system_stm32f1xx.o(i.SystemInit)
    i.TIM_Base_SetConfig                     0x080024d4   Section        0  stm32f1xx_hal_tim.o(i.TIM_Base_SetConfig)
    i.TIM_CCxChannelCmd                      0x08002540   Section        0  stm32f1xx_hal_tim.o(i.TIM_CCxChannelCmd)
    i.TIM_ETR_SetConfig                      0x0800255a   Section        0  stm32f1xx_hal_tim.o(i.TIM_ETR_SetConfig)
    i.TIM_ITRx_SetConfig                     0x0800256e   Section        0  stm32f1xx_hal_tim.o(i.TIM_ITRx_SetConfig)
    TIM_ITRx_SetConfig                       0x0800256f   Thumb Code    16  stm32f1xx_hal_tim.o(i.TIM_ITRx_SetConfig)
    i.TIM_OC1_SetConfig                      0x08002580   Section        0  stm32f1xx_hal_tim.o(i.TIM_OC1_SetConfig)
    TIM_OC1_SetConfig                        0x08002581   Thumb Code    74  stm32f1xx_hal_tim.o(i.TIM_OC1_SetConfig)
    i.TIM_OC2_SetConfig                      0x080025d0   Section        0  stm32f1xx_hal_tim.o(i.TIM_OC2_SetConfig)
    i.TIM_OC3_SetConfig                      0x08002628   Section        0  stm32f1xx_hal_tim.o(i.TIM_OC3_SetConfig)
    TIM_OC3_SetConfig                        0x08002629   Thumb Code    82  stm32f1xx_hal_tim.o(i.TIM_OC3_SetConfig)
    i.TIM_OC4_SetConfig                      0x08002680   Section        0  stm32f1xx_hal_tim.o(i.TIM_OC4_SetConfig)
    TIM_OC4_SetConfig                        0x08002681   Thumb Code    64  stm32f1xx_hal_tim.o(i.TIM_OC4_SetConfig)
    i.TIM_TI1_ConfigInputStage               0x080026c4   Section        0  stm32f1xx_hal_tim.o(i.TIM_TI1_ConfigInputStage)
    TIM_TI1_ConfigInputStage                 0x080026c5   Thumb Code    34  stm32f1xx_hal_tim.o(i.TIM_TI1_ConfigInputStage)
    i.TIM_TI2_ConfigInputStage               0x080026e6   Section        0  stm32f1xx_hal_tim.o(i.TIM_TI2_ConfigInputStage)
    TIM_TI2_ConfigInputStage                 0x080026e7   Thumb Code    36  stm32f1xx_hal_tim.o(i.TIM_TI2_ConfigInputStage)
    i.UART_DMAAbortOnError                   0x0800270a   Section        0  stm32f1xx_hal_uart.o(i.UART_DMAAbortOnError)
    UART_DMAAbortOnError                     0x0800270b   Thumb Code    16  stm32f1xx_hal_uart.o(i.UART_DMAAbortOnError)
    i.UART_EndRxTransfer                     0x0800271a   Section        0  stm32f1xx_hal_uart.o(i.UART_EndRxTransfer)
    UART_EndRxTransfer                       0x0800271b   Thumb Code    28  stm32f1xx_hal_uart.o(i.UART_EndRxTransfer)
    i.UART_Receive_IT                        0x08002736   Section        0  stm32f1xx_hal_uart.o(i.UART_Receive_IT)
    UART_Receive_IT                          0x08002737   Thumb Code   140  stm32f1xx_hal_uart.o(i.UART_Receive_IT)
    i.UART_SetConfig                         0x080027c4   Section        0  stm32f1xx_hal_uart.o(i.UART_SetConfig)
    UART_SetConfig                           0x080027c5   Thumb Code   178  stm32f1xx_hal_uart.o(i.UART_SetConfig)
    i.UART_WaitOnFlagUntilTimeout            0x0800287c   Section        0  stm32f1xx_hal_uart.o(i.UART_WaitOnFlagUntilTimeout)
    UART_WaitOnFlagUntilTimeout              0x0800287d   Thumb Code   100  stm32f1xx_hal_uart.o(i.UART_WaitOnFlagUntilTimeout)
    i.USART3_IRQHandler                      0x080028e0   Section        0  stm32f1xx_it.o(i.USART3_IRQHandler)
    i.USART_printf                           0x08002930   Section        0  esp8266.o(i.USART_printf)
    i.UsageFault_Handler                     0x08002a60   Section        0  stm32f1xx_it.o(i.UsageFault_Handler)
    i.__0printf$3                            0x08002a64   Section        0  printf3.o(i.__0printf$3)
    i.__0sprintf$3                           0x08002a84   Section        0  printf3.o(i.__0sprintf$3)
    i.__NVIC_SetPriority                     0x08002aac   Section        0  stm32f1xx_hal_cortex.o(i.__NVIC_SetPriority)
    __NVIC_SetPriority                       0x08002aad   Thumb Code    32  stm32f1xx_hal_cortex.o(i.__NVIC_SetPriority)
    i.__scatterload_copy                     0x08002acc   Section       14  handlers.o(i.__scatterload_copy)
    i.__scatterload_null                     0x08002ada   Section        2  handlers.o(i.__scatterload_null)
    i.__scatterload_zeroinit                 0x08002adc   Section       14  handlers.o(i.__scatterload_zeroinit)
    i._printf_core                           0x08002aec   Section        0  printf3.o(i._printf_core)
    _printf_core                             0x08002aed   Thumb Code   436  printf3.o(i._printf_core)
    i._sputc                                 0x08002ca4   Section        0  printf3.o(i._sputc)
    _sputc                                   0x08002ca5   Thumb Code    10  printf3.o(i._sputc)
    i.delay_ms                               0x08002cae   Section        0  main.o(i.delay_ms)
    i.dht11_init                             0x08002cb4   Section        0  dht11.o(i.dht11_init)
    i.fputc                                  0x08002ce4   Section        0  usart.o(i.fputc)
    i.main                                   0x08002cfc   Section        0  main.o(i.main)
    i.oled_fill                              0x08002eb4   Section        0  oled.o(i.oled_fill)
    i.oled_init                              0x08002eec   Section        0  oled.o(i.oled_init)
    i.oled_set_pos                           0x08002fa0   Section        0  oled.o(i.oled_set_pos)
    i.oled_show_string                       0x08002fc8   Section        0  oled.o(i.oled_show_string)
    i.oled_write_cmd                         0x080030a0   Section        0  oled.o(i.oled_write_cmd)
    i.oled_write_data                        0x080030c4   Section        0  oled.o(i.oled_write_data)
    i.stop_buzz                              0x080030e8   Section        0  process.o(i.stop_buzz)
    .constdata                               0x080030f8   Section     2072  oled.o(.constdata)
    .constdata                               0x08003910   Section       16  system_stm32f1xx.o(.constdata)
    .constdata                               0x08003920   Section        8  system_stm32f1xx.o(.constdata)
    .conststring                             0x08003928   Section      267  mqtt.o(.conststring)
    .data                                    0x20000000   Section        4  gpio.o(.data)
    .data                                    0x20000004   Section        1  usart.o(.data)
    .data                                    0x20000008   Section       12  stm32f1xx_hal.o(.data)
    .data                                    0x20000014   Section        4  system_stm32f1xx.o(.data)
    .data                                    0x20000018   Section        4  stdout.o(.data)
    .bss                                     0x2000001c   Section       48  adc.o(.bss)
    .bss                                     0x2000004c   Section       84  i2c.o(.bss)
    .bss                                     0x200000a0   Section       88  spi.o(.bss)
    .bss                                     0x200000f8   Section      144  tim.o(.bss)
    .bss                                     0x20000188   Section      128  usart.o(.bss)
    .bss                                     0x20000208   Section     1026  esp8266.o(.bss)
    STACK                                    0x20000610   Section     1024  startup_stm32f103xb.o(STACK)

    Global Symbols

    Symbol Name                              Value     Ov Type        Size  Object(Section)

    BuildAttributes$$THM_ISAv4$P$D$K$B$S$PE$A:L22UL41UL21$X:L11$S22US41US21$IEEE1$IW$USESV6$~STKCKD$USESV7$~SHL$OTIME$ROPI$EBA8$MICROLIB$REQ8$PRES8$EABIv2 0x00000000   Number         0  anon$$obj.o ABSOLUTE
    __ARM_use_no_argv                        0x00000000   Number         0  main.o ABSOLUTE
    _printf_a                                0x00000000   Number         0  stubs.o ABSOLUTE
    _printf_c                                0x00000000   Number         0  stubs.o ABSOLUTE
    _printf_charcount                        0x00000000   Number         0  stubs.o ABSOLUTE
    _printf_d                                0x00000000   Number         0  stubs.o ABSOLUTE
    _printf_e                                0x00000000   Number         0  stubs.o ABSOLUTE
    _printf_f                                0x00000000   Number         0  stubs.o ABSOLUTE
    _printf_flags                            0x00000000   Number         0  stubs.o ABSOLUTE
    _printf_fp_dec                           0x00000000   Number         0  stubs.o ABSOLUTE
    _printf_fp_hex                           0x00000000   Number         0  stubs.o ABSOLUTE
    _printf_g                                0x00000000   Number         0  stubs.o ABSOLUTE
    _printf_i                                0x00000000   Number         0  stubs.o ABSOLUTE
    _printf_int_dec                          0x00000000   Number         0  stubs.o ABSOLUTE
    _printf_l                                0x00000000   Number         0  stubs.o ABSOLUTE
    _printf_lc                               0x00000000   Number         0  stubs.o ABSOLUTE
    _printf_ll                               0x00000000   Number         0  stubs.o ABSOLUTE
    _printf_lld                              0x00000000   Number         0  stubs.o ABSOLUTE
    _printf_lli                              0x00000000   Number         0  stubs.o ABSOLUTE
    _printf_llo                              0x00000000   Number         0  stubs.o ABSOLUTE
    _printf_llu                              0x00000000   Number         0  stubs.o ABSOLUTE
    _printf_llx                              0x00000000   Number         0  stubs.o ABSOLUTE
    _printf_longlong_dec                     0x00000000   Number         0  stubs.o ABSOLUTE
    _printf_longlong_hex                     0x00000000   Number         0  stubs.o ABSOLUTE
    _printf_longlong_oct                     0x00000000   Number         0  stubs.o ABSOLUTE
    _printf_ls                               0x00000000   Number         0  stubs.o ABSOLUTE
    _printf_mbtowc                           0x00000000   Number         0  stubs.o ABSOLUTE
    _printf_n                                0x00000000   Number         0  stubs.o ABSOLUTE
    _printf_o                                0x00000000   Number         0  stubs.o ABSOLUTE
    _printf_p                                0x00000000   Number         0  stubs.o ABSOLUTE
    _printf_percent                          0x00000000   Number         0  stubs.o ABSOLUTE
    _printf_pre_padding                      0x00000000   Number         0  stubs.o ABSOLUTE
    _printf_return_value                     0x00000000   Number         0  stubs.o ABSOLUTE
    _printf_s                                0x00000000   Number         0  stubs.o ABSOLUTE
    _printf_sizespec                         0x00000000   Number         0  stubs.o ABSOLUTE
    _printf_str                              0x00000000   Number         0  stubs.o ABSOLUTE
    _printf_truncate_signed                  0x00000000   Number         0  stubs.o ABSOLUTE
    _printf_truncate_unsigned                0x00000000   Number         0  stubs.o ABSOLUTE
    _printf_u                                0x00000000   Number         0  stubs.o ABSOLUTE
    _printf_wc                               0x00000000   Number         0  stubs.o ABSOLUTE
    _printf_wctomb                           0x00000000   Number         0  stubs.o ABSOLUTE
    _printf_widthprec                        0x00000000   Number         0  stubs.o ABSOLUTE
    _printf_x                                0x00000000   Number         0  stubs.o ABSOLUTE
    __cpp_initialize__aeabi_                  - Undefined Weak Reference
    __cxa_finalize                            - Undefined Weak Reference
    __decompress                              - Undefined Weak Reference
    _clock_init                               - Undefined Weak Reference
    _microlib_exit                            - Undefined Weak Reference
    __Vectors_Size                           0x000000ec   Number         0  startup_stm32f103xb.o ABSOLUTE
    __Vectors                                0x08000000   Data           4  startup_stm32f103xb.o(RESET)
    __Vectors_End                            0x080000ec   Data           0  startup_stm32f103xb.o(RESET)
    __main                                   0x080000ed   Thumb Code     0  entry.o(.ARM.Collect$$$$00000000)
    _main_stk                                0x080000ed   Thumb Code     0  entry2.o(.ARM.Collect$$$$00000001)
    _main_scatterload                        0x080000f1   Thumb Code     0  entry5.o(.ARM.Collect$$$$00000004)
    __main_after_scatterload                 0x080000f5   Thumb Code     0  entry5.o(.ARM.Collect$$$$00000004)
    _main_clock                              0x080000f5   Thumb Code     0  entry7b.o(.ARM.Collect$$$$00000008)
    _main_cpp_init                           0x080000f5   Thumb Code     0  entry8b.o(.ARM.Collect$$$$0000000A)
    _main_init                               0x080000f5   Thumb Code     0  entry9a.o(.ARM.Collect$$$$0000000B)
    __rt_final_cpp                           0x080000fd   Thumb Code     0  entry10a.o(.ARM.Collect$$$$0000000D)
    __rt_final_exit                          0x080000fd   Thumb Code     0  entry11a.o(.ARM.Collect$$$$0000000F)
    Reset_Handler                            0x08000101   Thumb Code     8  startup_stm32f103xb.o(.text)
    ADC1_2_IRQHandler                        0x0800011b   Thumb Code     0  startup_stm32f103xb.o(.text)
    CAN1_RX1_IRQHandler                      0x0800011b   Thumb Code     0  startup_stm32f103xb.o(.text)
    CAN1_SCE_IRQHandler                      0x0800011b   Thumb Code     0  startup_stm32f103xb.o(.text)
    DMA1_Channel1_IRQHandler                 0x0800011b   Thumb Code     0  startup_stm32f103xb.o(.text)
    DMA1_Channel2_IRQHandler                 0x0800011b   Thumb Code     0  startup_stm32f103xb.o(.text)
    DMA1_Channel3_IRQHandler                 0x0800011b   Thumb Code     0  startup_stm32f103xb.o(.text)
    DMA1_Channel4_IRQHandler                 0x0800011b   Thumb Code     0  startup_stm32f103xb.o(.text)
    DMA1_Channel5_IRQHandler                 0x0800011b   Thumb Code     0  startup_stm32f103xb.o(.text)
    DMA1_Channel6_IRQHandler                 0x0800011b   Thumb Code     0  startup_stm32f103xb.o(.text)
    DMA1_Channel7_IRQHandler                 0x0800011b   Thumb Code     0  startup_stm32f103xb.o(.text)
    EXTI0_IRQHandler                         0x0800011b   Thumb Code     0  startup_stm32f103xb.o(.text)
    EXTI15_10_IRQHandler                     0x0800011b   Thumb Code     0  startup_stm32f103xb.o(.text)
    EXTI1_IRQHandler                         0x0800011b   Thumb Code     0  startup_stm32f103xb.o(.text)
    EXTI2_IRQHandler                         0x0800011b   Thumb Code     0  startup_stm32f103xb.o(.text)
    EXTI3_IRQHandler                         0x0800011b   Thumb Code     0  startup_stm32f103xb.o(.text)
    EXTI4_IRQHandler                         0x0800011b   Thumb Code     0  startup_stm32f103xb.o(.text)
    EXTI9_5_IRQHandler                       0x0800011b   Thumb Code     0  startup_stm32f103xb.o(.text)
    FLASH_IRQHandler                         0x0800011b   Thumb Code     0  startup_stm32f103xb.o(.text)
    I2C1_ER_IRQHandler                       0x0800011b   Thumb Code     0  startup_stm32f103xb.o(.text)
    I2C1_EV_IRQHandler                       0x0800011b   Thumb Code     0  startup_stm32f103xb.o(.text)
    I2C2_ER_IRQHandler                       0x0800011b   Thumb Code     0  startup_stm32f103xb.o(.text)
    I2C2_EV_IRQHandler                       0x0800011b   Thumb Code     0  startup_stm32f103xb.o(.text)
    PVD_IRQHandler                           0x0800011b   Thumb Code     0  startup_stm32f103xb.o(.text)
    RCC_IRQHandler                           0x0800011b   Thumb Code     0  startup_stm32f103xb.o(.text)
    RTC_Alarm_IRQHandler                     0x0800011b   Thumb Code     0  startup_stm32f103xb.o(.text)
    RTC_IRQHandler                           0x0800011b   Thumb Code     0  startup_stm32f103xb.o(.text)
    SPI1_IRQHandler                          0x0800011b   Thumb Code     0  startup_stm32f103xb.o(.text)
    SPI2_IRQHandler                          0x0800011b   Thumb Code     0  startup_stm32f103xb.o(.text)
    TAMPER_IRQHandler                        0x0800011b   Thumb Code     0  startup_stm32f103xb.o(.text)
    TIM1_BRK_IRQHandler                      0x0800011b   Thumb Code     0  startup_stm32f103xb.o(.text)
    TIM1_CC_IRQHandler                       0x0800011b   Thumb Code     0  startup_stm32f103xb.o(.text)
    TIM1_TRG_COM_IRQHandler                  0x0800011b   Thumb Code     0  startup_stm32f103xb.o(.text)
    TIM1_UP_IRQHandler                       0x0800011b   Thumb Code     0  startup_stm32f103xb.o(.text)
    TIM2_IRQHandler                          0x0800011b   Thumb Code     0  startup_stm32f103xb.o(.text)
    TIM3_IRQHandler                          0x0800011b   Thumb Code     0  startup_stm32f103xb.o(.text)
    TIM4_IRQHandler                          0x0800011b   Thumb Code     0  startup_stm32f103xb.o(.text)
    USART1_IRQHandler                        0x0800011b   Thumb Code     0  startup_stm32f103xb.o(.text)
    USART2_IRQHandler                        0x0800011b   Thumb Code     0  startup_stm32f103xb.o(.text)
    USBWakeUp_IRQHandler                     0x0800011b   Thumb Code     0  startup_stm32f103xb.o(.text)
    USB_HP_CAN1_TX_IRQHandler                0x0800011b   Thumb Code     0  startup_stm32f103xb.o(.text)
    USB_LP_CAN1_RX0_IRQHandler               0x0800011b   Thumb Code     0  startup_stm32f103xb.o(.text)
    WWDG_IRQHandler                          0x0800011b   Thumb Code     0  startup_stm32f103xb.o(.text)
    __aeabi_memcpy                           0x08000125   Thumb Code    36  memcpya.o(.text)
    __aeabi_memcpy4                          0x08000125   Thumb Code     0  memcpya.o(.text)
    __aeabi_memcpy8                          0x08000125   Thumb Code     0  memcpya.o(.text)
    __aeabi_memset                           0x08000149   Thumb Code    14  memseta.o(.text)
    __aeabi_memset4                          0x08000149   Thumb Code     0  memseta.o(.text)
    __aeabi_memset8                          0x08000149   Thumb Code     0  memseta.o(.text)
    __aeabi_memclr                           0x08000157   Thumb Code     4  memseta.o(.text)
    __aeabi_memclr4                          0x08000157   Thumb Code     0  memseta.o(.text)
    __aeabi_memclr8                          0x08000157   Thumb Code     0  memseta.o(.text)
    _memset$wrapper                          0x0800015b   Thumb Code    18  memseta.o(.text)
    strstr                                   0x0800016d   Thumb Code    36  strstr.o(.text)
    __aeabi_uidiv                            0x08000191   Thumb Code     0  uidiv.o(.text)
    __aeabi_uidivmod                         0x08000191   Thumb Code    44  uidiv.o(.text)
    __scatterload                            0x080001bd   Thumb Code    28  init.o(.text)
    __scatterload_rt2                        0x080001bd   Thumb Code     0  init.o(.text)
    ADC_ConversionStop_Disable               0x080001e1   Thumb Code    76  stm32f1xx_hal_adc.o(i.ADC_ConversionStop_Disable)
    BusFault_Handler                         0x0800022d   Thumb Code     2  stm32f1xx_it.o(i.BusFault_Handler)
    DebugMon_Handler                         0x0800024d   Thumb Code     2  stm32f1xx_it.o(i.DebugMon_Handler)
    ESP8266_ATE0                             0x08000251   Thumb Code    50  esp8266.o(i.ESP8266_ATE0)
    ESP8266_JoinAP                           0x08000299   Thumb Code    34  esp8266.o(i.ESP8266_JoinAP)
    ESP8266_MQTTCONN                         0x080002d5   Thumb Code    34  esp8266.o(i.ESP8266_MQTTCONN)
    ESP8266_MQTTPUB                          0x08000315   Thumb Code    38  esp8266.o(i.ESP8266_MQTTPUB)
    ESP8266_MQTTSUB                          0x0800035d   Thumb Code    32  esp8266.o(i.ESP8266_MQTTSUB)
    ESP8266_MQTTUSERCFG                      0x08000395   Thumb Code    36  esp8266.o(i.ESP8266_MQTTUSERCFG)
    ESP8266_Net_Mode_Choose                  0x080003e9   Thumb Code    44  esp8266.o(i.ESP8266_Net_Mode_Choose)
    ESP8266_STA_MQTTClient_Init              0x08000449   Thumb Code   124  mqtt.o(i.ESP8266_STA_MQTTClient_Init)
    ESP8266_Send_AT_Cmd                      0x080005c1   Thumb Code   104  esp8266.o(i.ESP8266_Send_AT_Cmd)
    Error_Handler                            0x08000641   Thumb Code     2  main.o(i.Error_Handler)
    HAL_ADC_ConfigChannel                    0x08000645   Thumb Code   240  stm32f1xx_hal_adc.o(i.HAL_ADC_ConfigChannel)
    HAL_ADC_Init                             0x08000741   Thumb Code   272  stm32f1xx_hal_adc.o(i.HAL_ADC_Init)
    HAL_ADC_MspInit                          0x0800085d   Thumb Code    76  adc.o(i.HAL_ADC_MspInit)
    HAL_DMA_Abort_IT                         0x080008b5   Thumb Code   148  stm32f1xx_hal_dma.o(i.HAL_DMA_Abort_IT)
    HAL_Delay                                0x0800094d   Thumb Code    32  stm32f1xx_hal.o(i.HAL_Delay)
    HAL_GPIO_Init                            0x08000971   Thumb Code   446  stm32f1xx_hal_gpio.o(i.HAL_GPIO_Init)
    HAL_GPIO_TogglePin                       0x08000b51   Thumb Code    16  stm32f1xx_hal_gpio.o(i.HAL_GPIO_TogglePin)
    HAL_GPIO_WritePin                        0x08000b61   Thumb Code    10  stm32f1xx_hal_gpio.o(i.HAL_GPIO_WritePin)
    HAL_GetTick                              0x08000b6d   Thumb Code     6  stm32f1xx_hal.o(i.HAL_GetTick)
    HAL_I2C_Init                             0x08000b79   Thumb Code   376  stm32f1xx_hal_i2c.o(i.HAL_I2C_Init)
    HAL_I2C_Mem_Write                        0x08000d01   Thumb Code   294  stm32f1xx_hal_i2c.o(i.HAL_I2C_Mem_Write)
    HAL_I2C_MspInit                          0x08000e31   Thumb Code    96  i2c.o(i.HAL_I2C_MspInit)
    HAL_IncTick                              0x08000ea1   Thumb Code    12  stm32f1xx_hal.o(i.HAL_IncTick)
    HAL_Init                                 0x08000eb1   Thumb Code    32  stm32f1xx_hal.o(i.HAL_Init)
    HAL_InitTick                             0x08000ed5   Thumb Code    54  stm32f1xx_hal.o(i.HAL_InitTick)
    HAL_MspInit                              0x08000f15   Thumb Code    52  stm32f1xx_hal_msp.o(i.HAL_MspInit)
    HAL_NVIC_EnableIRQ                       0x08000f51   Thumb Code    26  stm32f1xx_hal_cortex.o(i.HAL_NVIC_EnableIRQ)
    HAL_NVIC_SetPriority                     0x08000f6d   Thumb Code    60  stm32f1xx_hal_cortex.o(i.HAL_NVIC_SetPriority)
    HAL_NVIC_SetPriorityGrouping             0x08000fad   Thumb Code    26  stm32f1xx_hal_cortex.o(i.HAL_NVIC_SetPriorityGrouping)
    HAL_RCCEx_PeriphCLKConfig                0x08000fd1   Thumb Code   224  stm32f1xx_hal_rcc_ex.o(i.HAL_RCCEx_PeriphCLKConfig)
    HAL_RCC_ClockConfig                      0x080010bd   Thumb Code   280  stm32f1xx_hal_rcc.o(i.HAL_RCC_ClockConfig)
    HAL_RCC_GetPCLK1Freq                     0x080011e9   Thumb Code    20  stm32f1xx_hal_rcc.o(i.HAL_RCC_GetPCLK1Freq)
    HAL_RCC_GetPCLK2Freq                     0x08001209   Thumb Code    20  stm32f1xx_hal_rcc.o(i.HAL_RCC_GetPCLK2Freq)
    HAL_RCC_GetSysClockFreq                  0x08001229   Thumb Code    74  stm32f1xx_hal_rcc.o(i.HAL_RCC_GetSysClockFreq)
    HAL_RCC_OscConfig                        0x08001295   Thumb Code   778  stm32f1xx_hal_rcc.o(i.HAL_RCC_OscConfig)
    HAL_SPI_Init                             0x080015b5   Thumb Code   178  stm32f1xx_hal_spi.o(i.HAL_SPI_Init)
    HAL_SPI_MspInit                          0x08001669   Thumb Code   102  spi.o(i.HAL_SPI_MspInit)
    HAL_SYSTICK_Config                       0x080016dd   Thumb Code    40  stm32f1xx_hal_cortex.o(i.HAL_SYSTICK_Config)
    HAL_TIMEx_MasterConfigSynchronization    0x08001705   Thumb Code    92  stm32f1xx_hal_tim_ex.o(i.HAL_TIMEx_MasterConfigSynchronization)
    HAL_TIM_Base_Init                        0x0800176d   Thumb Code    90  stm32f1xx_hal_tim.o(i.HAL_TIM_Base_Init)
    HAL_TIM_Base_MspInit                     0x080017c9   Thumb Code    30  tim.o(i.HAL_TIM_Base_MspInit)
    HAL_TIM_Base_Start_IT                    0x080017f1   Thumb Code    76  stm32f1xx_hal_tim.o(i.HAL_TIM_Base_Start_IT)
    HAL_TIM_ConfigClockSource                0x08001849   Thumb Code   214  stm32f1xx_hal_tim.o(i.HAL_TIM_ConfigClockSource)
    HAL_TIM_MspPostInit                      0x08001921   Thumb Code    62  tim.o(i.HAL_TIM_MspPostInit)
    HAL_TIM_OC_ConfigChannel                 0x0800196d   Thumb Code    76  stm32f1xx_hal_tim.o(i.HAL_TIM_OC_ConfigChannel)
    HAL_TIM_OC_Init                          0x080019b9   Thumb Code    90  stm32f1xx_hal_tim.o(i.HAL_TIM_OC_Init)
    HAL_TIM_OC_MspInit                       0x08001a15   Thumb Code    30  tim.o(i.HAL_TIM_OC_MspInit)
    HAL_TIM_PWM_Start                        0x08001a3d   Thumb Code   144  stm32f1xx_hal_tim.o(i.HAL_TIM_PWM_Start)
    HAL_UART_ErrorCallback                   0x08001ad9   Thumb Code     2  stm32f1xx_hal_uart.o(i.HAL_UART_ErrorCallback)
    HAL_UART_IRQHandler                      0x08001add   Thumb Code   344  stm32f1xx_hal_uart.o(i.HAL_UART_IRQHandler)
    HAL_UART_Init                            0x08001c39   Thumb Code    98  stm32f1xx_hal_uart.o(i.HAL_UART_Init)
    HAL_UART_MspInit                         0x08001c9d   Thumb Code   198  usart.o(i.HAL_UART_MspInit)
    HAL_UART_Receive_IT                      0x08001d7d   Thumb Code    82  stm32f1xx_hal_uart.o(i.HAL_UART_Receive_IT)
    HAL_UART_RxCpltCallback                  0x08001dd1   Thumb Code    74  usart.o(i.HAL_UART_RxCpltCallback)
    HAL_UART_Transmit                        0x08001e2d   Thumb Code   178  stm32f1xx_hal_uart.o(i.HAL_UART_Transmit)
    HAL_UART_TxCpltCallback                  0x08001edf   Thumb Code     2  stm32f1xx_hal_uart.o(i.HAL_UART_TxCpltCallback)
    HardFault_Handler                        0x08001ee1   Thumb Code     2  stm32f1xx_it.o(i.HardFault_Handler)
    MQTT_SendString                          0x0800214f   Thumb Code     4  esp8266.o(i.MQTT_SendString)
    MX_ADC1_Init                             0x08002155   Thumb Code    70  adc.o(i.MX_ADC1_Init)
    MX_GPIO_Init                             0x080021a5   Thumb Code   224  gpio.o(i.MX_GPIO_Init)
    MX_I2C1_Init                             0x08002295   Thumb Code    50  i2c.o(i.MX_I2C1_Init)
    MX_SPI2_Init                             0x080022d5   Thumb Code    60  spi.o(i.MX_SPI2_Init)
    MX_TIM3_Init                             0x08002319   Thumb Code    94  tim.o(i.MX_TIM3_Init)
    MX_TIM4_Init                             0x08002381   Thumb Code   106  tim.o(i.MX_TIM4_Init)
    MX_USART1_UART_Init                      0x080023f5   Thumb Code    48  usart.o(i.MX_USART1_UART_Init)
    MX_USART3_UART_Init                      0x0800242d   Thumb Code    48  usart.o(i.MX_USART3_UART_Init)
    MemManage_Handler                        0x08002465   Thumb Code     2  stm32f1xx_it.o(i.MemManage_Handler)
    NMI_Handler                              0x08002467   Thumb Code     2  stm32f1xx_it.o(i.NMI_Handler)
    PendSV_Handler                           0x08002469   Thumb Code     2  stm32f1xx_it.o(i.PendSV_Handler)
    SVC_Handler                              0x0800246b   Thumb Code     2  stm32f1xx_it.o(i.SVC_Handler)
    SysTick_Handler                          0x0800246d   Thumb Code     4  stm32f1xx_it.o(i.SysTick_Handler)
    SystemClock_Config                       0x08002471   Thumb Code    96  main.o(i.SystemClock_Config)
    SystemInit                               0x080024d1   Thumb Code     2  system_stm32f1xx.o(i.SystemInit)
    TIM_Base_SetConfig                       0x080024d5   Thumb Code    94  stm32f1xx_hal_tim.o(i.TIM_Base_SetConfig)
    TIM_CCxChannelCmd                        0x08002541   Thumb Code    26  stm32f1xx_hal_tim.o(i.TIM_CCxChannelCmd)
    TIM_ETR_SetConfig                        0x0800255b   Thumb Code    20  stm32f1xx_hal_tim.o(i.TIM_ETR_SetConfig)
    TIM_OC2_SetConfig                        0x080025d1   Thumb Code    84  stm32f1xx_hal_tim.o(i.TIM_OC2_SetConfig)
    USART3_IRQHandler                        0x080028e1   Thumb Code    50  stm32f1xx_it.o(i.USART3_IRQHandler)
    USART_printf                             0x08002931   Thumb Code   298  esp8266.o(i.USART_printf)
    UsageFault_Handler                       0x08002a61   Thumb Code     2  stm32f1xx_it.o(i.UsageFault_Handler)
    __0printf$3                              0x08002a65   Thumb Code    22  printf3.o(i.__0printf$3)
    __1printf$3                              0x08002a65   Thumb Code     0  printf3.o(i.__0printf$3)
    __2printf                                0x08002a65   Thumb Code     0  printf3.o(i.__0printf$3)
    __0sprintf$3                             0x08002a85   Thumb Code    34  printf3.o(i.__0sprintf$3)
    __1sprintf$3                             0x08002a85   Thumb Code     0  printf3.o(i.__0sprintf$3)
    __2sprintf                               0x08002a85   Thumb Code     0  printf3.o(i.__0sprintf$3)
    __scatterload_copy                       0x08002acd   Thumb Code    14  handlers.o(i.__scatterload_copy)
    __scatterload_null                       0x08002adb   Thumb Code     2  handlers.o(i.__scatterload_null)
    __scatterload_zeroinit                   0x08002add   Thumb Code    14  handlers.o(i.__scatterload_zeroinit)
    delay_ms                                 0x08002caf   Thumb Code     4  main.o(i.delay_ms)
    dht11_init                               0x08002cb5   Thumb Code    38  dht11.o(i.dht11_init)
    fputc                                    0x08002ce5   Thumb Code    20  usart.o(i.fputc)
    main                                     0x08002cfd   Thumb Code   258  main.o(i.main)
    oled_fill                                0x08002eb5   Thumb Code    56  oled.o(i.oled_fill)
    oled_init                                0x08002eed   Thumb Code   180  oled.o(i.oled_init)
    oled_set_pos                             0x08002fa1   Thumb Code    38  oled.o(i.oled_set_pos)
    oled_show_string                         0x08002fc9   Thumb Code   208  oled.o(i.oled_show_string)
    oled_write_cmd                           0x080030a1   Thumb Code    32  oled.o(i.oled_write_cmd)
    oled_write_data                          0x080030c5   Thumb Code    32  oled.o(i.oled_write_data)
    stop_buzz                                0x080030e9   Thumb Code    10  process.o(i.stop_buzz)
    F6x8                                     0x080030f8   Data         552  oled.o(.constdata)
    F8X16                                    0x08003320   Data        1520  oled.o(.constdata)
    AHBPrescTable                            0x08003910   Data          16  system_stm32f1xx.o(.constdata)
    APBPrescTable                            0x08003920   Data           8  system_stm32f1xx.o(.constdata)
    Region$$Table$$Base                      0x08003a34   Number         0  anon$$obj.o(Region$$Table)
    Region$$Table$$Limit                     0x08003a54   Number         0  anon$$obj.o(Region$$Table)
    key_flag                                 0x20000000   Data           4  gpio.o(.data)
    aRxBuffer                                0x20000004   Data           1  usart.o(.data)
    uwTickFreq                               0x20000008   Data           1  stm32f1xx_hal.o(.data)
    uwTickPrio                               0x2000000c   Data           4  stm32f1xx_hal.o(.data)
    uwTick                                   0x20000010   Data           4  stm32f1xx_hal.o(.data)
    SystemCoreClock                          0x20000014   Data           4  system_stm32f1xx.o(.data)
    __stdout                                 0x20000018   Data           4  stdout.o(.data)
    hadc1                                    0x2000001c   Data          48  adc.o(.bss)
    hi2c1                                    0x2000004c   Data          84  i2c.o(.bss)
    hspi2                                    0x200000a0   Data          88  spi.o(.bss)
    htim3                                    0x200000f8   Data          72  tim.o(.bss)
    htim4                                    0x20000140   Data          72  tim.o(.bss)
    huart1                                   0x20000188   Data          64  usart.o(.bss)
    huart3                                   0x200001c8   Data          64  usart.o(.bss)
    ESP8266_Fram_Record_Struct               0x20000208   Data        1026  esp8266.o(.bss)
    __initial_sp                             0x20000a10   Data           0  startup_stm32f103xb.o(STACK)



==============================================================================

Memory Map of the image

  Image Entry point : 0x080000ed

  Load Region LR_IROM1 (Base: 0x08000000, Size: 0x00003a70, Max: 0x00010000, ABSOLUTE)

    Execution Region ER_IROM1 (Exec base: 0x08000000, Load base: 0x08000000, Size: 0x00003a54, Max: 0x00010000, ABSOLUTE)

    Exec Addr    Load Addr    Size         Type   Attr      Idx    E Section Name        Object

    0x08000000   0x08000000   0x000000ec   Data   RO            3    RESET               startup_stm32f103xb.o
    0x080000ec   0x080000ec   0x00000000   Code   RO         4682  * .ARM.Collect$$$$00000000  mc_w.l(entry.o)
    0x080000ec   0x080000ec   0x00000004   Code   RO         4960    .ARM.Collect$$$$00000001  mc_w.l(entry2.o)
    0x080000f0   0x080000f0   0x00000004   Code   RO         4963    .ARM.Collect$$$$00000004  mc_w.l(entry5.o)
    0x080000f4   0x080000f4   0x00000000   Code   RO         4965    .ARM.Collect$$$$00000008  mc_w.l(entry7b.o)
    0x080000f4   0x080000f4   0x00000000   Code   RO         4967    .ARM.Collect$$$$0000000A  mc_w.l(entry8b.o)
    0x080000f4   0x080000f4   0x00000008   Code   RO         4968    .ARM.Collect$$$$0000000B  mc_w.l(entry9a.o)
    0x080000fc   0x080000fc   0x00000000   Code   RO         4970    .ARM.Collect$$$$0000000D  mc_w.l(entry10a.o)
    0x080000fc   0x080000fc   0x00000000   Code   RO         4972    .ARM.Collect$$$$0000000F  mc_w.l(entry11a.o)
    0x080000fc   0x080000fc   0x00000004   Code   RO         4961    .ARM.Collect$$$$00002712  mc_w.l(entry2.o)
    0x08000100   0x08000100   0x00000024   Code   RO            4    .text               startup_stm32f103xb.o
    0x08000124   0x08000124   0x00000024   Code   RO         4687    .text               mc_w.l(memcpya.o)
    0x08000148   0x08000148   0x00000024   Code   RO         4689    .text               mc_w.l(memseta.o)
    0x0800016c   0x0800016c   0x00000024   Code   RO         4691    .text               mc_w.l(strstr.o)
    0x08000190   0x08000190   0x0000002c   Code   RO         4975    .text               mc_w.l(uidiv.o)
    0x080001bc   0x080001bc   0x00000024   Code   RO         4992    .text               mc_w.l(init.o)
    0x080001e0   0x080001e0   0x0000004c   Code   RO         1353    i.ADC_ConversionStop_Disable  stm32f1xx_hal_adc.o
    0x0800022c   0x0800022c   0x00000002   Code   RO          502    i.BusFault_Handler  stm32f1xx_it.o
    0x0800022e   0x0800022e   0x00000002   PAD
    0x08000230   0x08000230   0x0000001c   Code   RO          847    i.DHT11_Mode_Out_PP  dht11.o
    0x0800024c   0x0800024c   0x00000002   Code   RO          503    i.DebugMon_Handler  stm32f1xx_it.o
    0x0800024e   0x0800024e   0x00000002   PAD
    0x08000250   0x08000250   0x00000048   Code   RO         1167    i.ESP8266_ATE0      esp8266.o
    0x08000298   0x08000298   0x0000003c   Code   RO         1173    i.ESP8266_JoinAP    esp8266.o
    0x080002d4   0x080002d4   0x00000040   Code   RO         1176    i.ESP8266_MQTTCONN  esp8266.o
    0x08000314   0x08000314   0x00000048   Code   RO         1177    i.ESP8266_MQTTPUB   esp8266.o
    0x0800035c   0x0800035c   0x00000038   Code   RO         1178    i.ESP8266_MQTTSUB   esp8266.o
    0x08000394   0x08000394   0x00000054   Code   RO         1179    i.ESP8266_MQTTUSERCFG  esp8266.o
    0x080003e8   0x080003e8   0x00000060   Code   RO         1180    i.ESP8266_Net_Mode_Choose  esp8266.o
    0x08000448   0x08000448   0x00000178   Code   RO          638    i.ESP8266_STA_MQTTClient_Init  mqtt.o
    0x080005c0   0x080005c0   0x00000080   Code   RO         1183    i.ESP8266_Send_AT_Cmd  esp8266.o
    0x08000640   0x08000640   0x00000002   Code   RO           13    i.Error_Handler     main.o
    0x08000642   0x08000642   0x00000002   PAD
    0x08000644   0x08000644   0x000000fc   Code   RO         1359    i.HAL_ADC_ConfigChannel  stm32f1xx_hal_adc.o
    0x08000740   0x08000740   0x0000011c   Code   RO         1368    i.HAL_ADC_Init      stm32f1xx_hal_adc.o
    0x0800085c   0x0800085c   0x00000058   Code   RO          249    i.HAL_ADC_MspInit   adc.o
    0x080008b4   0x080008b4   0x00000098   Code   RO         2009    i.HAL_DMA_Abort_IT  stm32f1xx_hal_dma.o
    0x0800094c   0x0800094c   0x00000024   Code   RO         1636    i.HAL_Delay         stm32f1xx_hal.o
    0x08000970   0x08000970   0x000001e0   Code   RO         1944    i.HAL_GPIO_Init     stm32f1xx_hal_gpio.o
    0x08000b50   0x08000b50   0x00000010   Code   RO         1947    i.HAL_GPIO_TogglePin  stm32f1xx_hal_gpio.o
    0x08000b60   0x08000b60   0x0000000a   Code   RO         1948    i.HAL_GPIO_WritePin  stm32f1xx_hal_gpio.o
    0x08000b6a   0x08000b6a   0x00000002   PAD
    0x08000b6c   0x08000b6c   0x0000000c   Code   RO         1640    i.HAL_GetTick       stm32f1xx_hal.o
    0x08000b78   0x08000b78   0x00000188   Code   RO         2615    i.HAL_I2C_Init      stm32f1xx_hal_i2c.o
    0x08000d00   0x08000d00   0x00000130   Code   RO         2636    i.HAL_I2C_Mem_Write  stm32f1xx_hal_i2c.o
    0x08000e30   0x08000e30   0x00000070   Code   RO          291    i.HAL_I2C_MspInit   i2c.o
    0x08000ea0   0x08000ea0   0x00000010   Code   RO         1646    i.HAL_IncTick       stm32f1xx_hal.o
    0x08000eb0   0x08000eb0   0x00000024   Code   RO         1647    i.HAL_Init          stm32f1xx_hal.o
    0x08000ed4   0x08000ed4   0x00000040   Code   RO         1648    i.HAL_InitTick      stm32f1xx_hal.o
    0x08000f14   0x08000f14   0x0000003c   Code   RO          584    i.HAL_MspInit       stm32f1xx_hal_msp.o
    0x08000f50   0x08000f50   0x0000001a   Code   RO         2104    i.HAL_NVIC_EnableIRQ  stm32f1xx_hal_cortex.o
    0x08000f6a   0x08000f6a   0x00000002   PAD
    0x08000f6c   0x08000f6c   0x00000040   Code   RO         2110    i.HAL_NVIC_SetPriority  stm32f1xx_hal_cortex.o
    0x08000fac   0x08000fac   0x00000024   Code   RO         2111    i.HAL_NVIC_SetPriorityGrouping  stm32f1xx_hal_cortex.o
    0x08000fd0   0x08000fd0   0x000000ec   Code   RO         1907    i.HAL_RCCEx_PeriphCLKConfig  stm32f1xx_hal_rcc_ex.o
    0x080010bc   0x080010bc   0x0000012c   Code   RO         1804    i.HAL_RCC_ClockConfig  stm32f1xx_hal_rcc.o
    0x080011e8   0x080011e8   0x00000020   Code   RO         1811    i.HAL_RCC_GetPCLK1Freq  stm32f1xx_hal_rcc.o
    0x08001208   0x08001208   0x00000020   Code   RO         1812    i.HAL_RCC_GetPCLK2Freq  stm32f1xx_hal_rcc.o
    0x08001228   0x08001228   0x0000006c   Code   RO         1813    i.HAL_RCC_GetSysClockFreq  stm32f1xx_hal_rcc.o
    0x08001294   0x08001294   0x00000320   Code   RO         1816    i.HAL_RCC_OscConfig  stm32f1xx_hal_rcc.o
    0x080015b4   0x080015b4   0x000000b2   Code   RO         3042    i.HAL_SPI_Init      stm32f1xx_hal_spi.o
    0x08001666   0x08001666   0x00000002   PAD
    0x08001668   0x08001668   0x00000074   Code   RO          333    i.HAL_SPI_MspInit   spi.o
    0x080016dc   0x080016dc   0x00000028   Code   RO         2115    i.HAL_SYSTICK_Config  stm32f1xx_hal_cortex.o
    0x08001704   0x08001704   0x00000068   Code   RO         4078    i.HAL_TIMEx_MasterConfigSynchronization  stm32f1xx_hal_tim_ex.o
    0x0800176c   0x0800176c   0x0000005a   Code   RO         3355    i.HAL_TIM_Base_Init  stm32f1xx_hal_tim.o
    0x080017c6   0x080017c6   0x00000002   PAD
    0x080017c8   0x080017c8   0x00000028   Code   RO          375    i.HAL_TIM_Base_MspInit  tim.o
    0x080017f0   0x080017f0   0x00000058   Code   RO         3360    i.HAL_TIM_Base_Start_IT  stm32f1xx_hal_tim.o
    0x08001848   0x08001848   0x000000d6   Code   RO         3364    i.HAL_TIM_ConfigClockSource  stm32f1xx_hal_tim.o
    0x0800191e   0x0800191e   0x00000002   PAD
    0x08001920   0x08001920   0x0000004c   Code   RO          376    i.HAL_TIM_MspPostInit  tim.o
    0x0800196c   0x0800196c   0x0000004c   Code   RO         3404    i.HAL_TIM_OC_ConfigChannel  stm32f1xx_hal_tim.o
    0x080019b8   0x080019b8   0x0000005a   Code   RO         3408    i.HAL_TIM_OC_Init   stm32f1xx_hal_tim.o
    0x08001a12   0x08001a12   0x00000002   PAD
    0x08001a14   0x08001a14   0x00000028   Code   RO          378    i.HAL_TIM_OC_MspInit  tim.o
    0x08001a3c   0x08001a3c   0x0000009c   Code   RO         3435    i.HAL_TIM_PWM_Start  stm32f1xx_hal_tim.o
    0x08001ad8   0x08001ad8   0x00000002   Code   RO         4347    i.HAL_UART_ErrorCallback  stm32f1xx_hal_uart.o
    0x08001ada   0x08001ada   0x00000002   PAD
    0x08001adc   0x08001adc   0x0000015c   Code   RO         4350    i.HAL_UART_IRQHandler  stm32f1xx_hal_uart.o
    0x08001c38   0x08001c38   0x00000062   Code   RO         4351    i.HAL_UART_Init     stm32f1xx_hal_uart.o
    0x08001c9a   0x08001c9a   0x00000002   PAD
    0x08001c9c   0x08001c9c   0x000000e0   Code   RO          441    i.HAL_UART_MspInit  usart.o
    0x08001d7c   0x08001d7c   0x00000052   Code   RO         4356    i.HAL_UART_Receive_IT  stm32f1xx_hal_uart.o
    0x08001dce   0x08001dce   0x00000002   PAD
    0x08001dd0   0x08001dd0   0x0000005c   Code   RO          442    i.HAL_UART_RxCpltCallback  usart.o
    0x08001e2c   0x08001e2c   0x000000b2   Code   RO         4359    i.HAL_UART_Transmit  stm32f1xx_hal_uart.o
    0x08001ede   0x08001ede   0x00000002   Code   RO         4362    i.HAL_UART_TxCpltCallback  stm32f1xx_hal_uart.o
    0x08001ee0   0x08001ee0   0x00000002   Code   RO          504    i.HardFault_Handler  stm32f1xx_it.o
    0x08001ee2   0x08001ee2   0x0000002e   Code   RO         2657    i.I2C_IsAcknowledgeFailed  stm32f1xx_hal_i2c.o
    0x08001f10   0x08001f10   0x000000a8   Code   RO         2668    i.I2C_RequestMemoryWrite  stm32f1xx_hal_i2c.o
    0x08001fb8   0x08001fb8   0x0000004c   Code   RO         2671    i.I2C_WaitOnBTFFlagUntilTimeout  stm32f1xx_hal_i2c.o
    0x08002004   0x08002004   0x00000068   Code   RO         2672    i.I2C_WaitOnFlagUntilTimeout  stm32f1xx_hal_i2c.o
    0x0800206c   0x0800206c   0x00000096   Code   RO         2673    i.I2C_WaitOnMasterAddressFlagUntilTimeout  stm32f1xx_hal_i2c.o
    0x08002102   0x08002102   0x0000004c   Code   RO         2675    i.I2C_WaitOnTXEFlagUntilTimeout  stm32f1xx_hal_i2c.o
    0x0800214e   0x0800214e   0x00000004   Code   RO         1185    i.MQTT_SendString   esp8266.o
    0x08002152   0x08002152   0x00000002   PAD
    0x08002154   0x08002154   0x00000050   Code   RO          250    i.MX_ADC1_Init      adc.o
    0x080021a4   0x080021a4   0x000000f0   Code   RO          216    i.MX_GPIO_Init      gpio.o
    0x08002294   0x08002294   0x00000040   Code   RO          292    i.MX_I2C1_Init      i2c.o
    0x080022d4   0x080022d4   0x00000044   Code   RO          334    i.MX_SPI2_Init      spi.o
    0x08002318   0x08002318   0x00000068   Code   RO          379    i.MX_TIM3_Init      tim.o
    0x08002380   0x08002380   0x00000074   Code   RO          380    i.MX_TIM4_Init      tim.o
    0x080023f4   0x080023f4   0x00000038   Code   RO          443    i.MX_USART1_UART_Init  usart.o
    0x0800242c   0x0800242c   0x00000038   Code   RO          444    i.MX_USART3_UART_Init  usart.o
    0x08002464   0x08002464   0x00000002   Code   RO          505    i.MemManage_Handler  stm32f1xx_it.o
    0x08002466   0x08002466   0x00000002   Code   RO          506    i.NMI_Handler       stm32f1xx_it.o
    0x08002468   0x08002468   0x00000002   Code   RO          507    i.PendSV_Handler    stm32f1xx_it.o
    0x0800246a   0x0800246a   0x00000002   Code   RO          508    i.SVC_Handler       stm32f1xx_it.o
    0x0800246c   0x0800246c   0x00000004   Code   RO          509    i.SysTick_Handler   stm32f1xx_it.o
    0x08002470   0x08002470   0x00000060   Code   RO           14    i.SystemClock_Config  main.o
    0x080024d0   0x080024d0   0x00000002   Code   RO         4648    i.SystemInit        system_stm32f1xx.o
    0x080024d2   0x080024d2   0x00000002   PAD
    0x080024d4   0x080024d4   0x0000006c   Code   RO         3448    i.TIM_Base_SetConfig  stm32f1xx_hal_tim.o
    0x08002540   0x08002540   0x0000001a   Code   RO         3449    i.TIM_CCxChannelCmd  stm32f1xx_hal_tim.o
    0x0800255a   0x0800255a   0x00000014   Code   RO         3459    i.TIM_ETR_SetConfig  stm32f1xx_hal_tim.o
    0x0800256e   0x0800256e   0x00000010   Code   RO         3460    i.TIM_ITRx_SetConfig  stm32f1xx_hal_tim.o
    0x0800257e   0x0800257e   0x00000002   PAD
    0x08002580   0x08002580   0x00000050   Code   RO         3461    i.TIM_OC1_SetConfig  stm32f1xx_hal_tim.o
    0x080025d0   0x080025d0   0x00000058   Code   RO         3462    i.TIM_OC2_SetConfig  stm32f1xx_hal_tim.o
    0x08002628   0x08002628   0x00000058   Code   RO         3463    i.TIM_OC3_SetConfig  stm32f1xx_hal_tim.o
    0x08002680   0x08002680   0x00000044   Code   RO         3464    i.TIM_OC4_SetConfig  stm32f1xx_hal_tim.o
    0x080026c4   0x080026c4   0x00000022   Code   RO         3466    i.TIM_TI1_ConfigInputStage  stm32f1xx_hal_tim.o
    0x080026e6   0x080026e6   0x00000024   Code   RO         3468    i.TIM_TI2_ConfigInputStage  stm32f1xx_hal_tim.o
    0x0800270a   0x0800270a   0x00000010   Code   RO         4364    i.UART_DMAAbortOnError  stm32f1xx_hal_uart.o
    0x0800271a   0x0800271a   0x0000001c   Code   RO         4374    i.UART_EndRxTransfer  stm32f1xx_hal_uart.o
    0x08002736   0x08002736   0x0000008c   Code   RO         4376    i.UART_Receive_IT   stm32f1xx_hal_uart.o
    0x080027c2   0x080027c2   0x00000002   PAD
    0x080027c4   0x080027c4   0x000000b8   Code   RO         4377    i.UART_SetConfig    stm32f1xx_hal_uart.o
    0x0800287c   0x0800287c   0x00000064   Code   RO         4378    i.UART_WaitOnFlagUntilTimeout  stm32f1xx_hal_uart.o
    0x080028e0   0x080028e0   0x00000050   Code   RO          510    i.USART3_IRQHandler  stm32f1xx_it.o
    0x08002930   0x08002930   0x00000130   Code   RO         1186    i.USART_printf      esp8266.o
    0x08002a60   0x08002a60   0x00000002   Code   RO          511    i.UsageFault_Handler  stm32f1xx_it.o
    0x08002a62   0x08002a62   0x00000002   PAD
    0x08002a64   0x08002a64   0x00000020   Code   RO         4784    i.__0printf$3       mc_w.l(printf3.o)
    0x08002a84   0x08002a84   0x00000028   Code   RO         4786    i.__0sprintf$3      mc_w.l(printf3.o)
    0x08002aac   0x08002aac   0x00000020   Code   RO         2117    i.__NVIC_SetPriority  stm32f1xx_hal_cortex.o
    0x08002acc   0x08002acc   0x0000000e   Code   RO         5002    i.__scatterload_copy  mc_w.l(handlers.o)
    0x08002ada   0x08002ada   0x00000002   Code   RO         5003    i.__scatterload_null  mc_w.l(handlers.o)
    0x08002adc   0x08002adc   0x0000000e   Code   RO         5004    i.__scatterload_zeroinit  mc_w.l(handlers.o)
    0x08002aea   0x08002aea   0x00000002   PAD
    0x08002aec   0x08002aec   0x000001b8   Code   RO         4791    i._printf_core      mc_w.l(printf3.o)
    0x08002ca4   0x08002ca4   0x0000000a   Code   RO         4793    i._sputc            mc_w.l(printf3.o)
    0x08002cae   0x08002cae   0x00000004   Code   RO           15    i.delay_ms          main.o
    0x08002cb2   0x08002cb2   0x00000002   PAD
    0x08002cb4   0x08002cb4   0x00000030   Code   RO          850    i.dht11_init        dht11.o
    0x08002ce4   0x08002ce4   0x00000018   Code   RO          445    i.fputc             usart.o
    0x08002cfc   0x08002cfc   0x000001b8   Code   RO           16    i.main              main.o
    0x08002eb4   0x08002eb4   0x00000038   Code   RO          936    i.oled_fill         oled.o
    0x08002eec   0x08002eec   0x000000b4   Code   RO          937    i.oled_init         oled.o
    0x08002fa0   0x08002fa0   0x00000026   Code   RO          938    i.oled_set_pos      oled.o
    0x08002fc6   0x08002fc6   0x00000002   PAD
    0x08002fc8   0x08002fc8   0x000000d8   Code   RO          940    i.oled_show_string  oled.o
    0x080030a0   0x080030a0   0x00000024   Code   RO          943    i.oled_write_cmd    oled.o
    0x080030c4   0x080030c4   0x00000024   Code   RO          944    i.oled_write_data   oled.o
    0x080030e8   0x080030e8   0x00000010   Code   RO          768    i.stop_buzz         process.o
    0x080030f8   0x080030f8   0x00000818   Data   RO          945    .constdata          oled.o
    0x08003910   0x08003910   0x00000010   Data   RO         4649    .constdata          system_stm32f1xx.o
    0x08003920   0x08003920   0x00000008   Data   RO         4650    .constdata          system_stm32f1xx.o
    0x08003928   0x08003928   0x0000010b   Data   RO          639    .conststring        mqtt.o
    0x08003a33   0x08003a33   0x00000001   PAD
    0x08003a34   0x08003a34   0x00000020   Data   RO         5000    Region$$Table       anon$$obj.o


    Execution Region RW_IRAM1 (Exec base: 0x20000000, Load base: 0x08003a54, Size: 0x00000a10, Max: 0x00005000, ABSOLUTE)

    Exec Addr    Load Addr    Size         Type   Attr      Idx    E Section Name        Object

    0x20000000   0x08003a54   0x00000004   Data   RW          217    .data               gpio.o
    0x20000004   0x08003a58   0x00000001   Data   RW          447    .data               usart.o
    0x20000005   0x08003a59   0x00000003   PAD
    0x20000008   0x08003a5c   0x0000000c   Data   RW         1654    .data               stm32f1xx_hal.o
    0x20000014   0x08003a68   0x00000004   Data   RW         4651    .data               system_stm32f1xx.o
    0x20000018   0x08003a6c   0x00000004   Data   RW         4974    .data               mc_w.l(stdout.o)
    0x2000001c        -       0x00000030   Zero   RW          251    .bss                adc.o
    0x2000004c        -       0x00000054   Zero   RW          293    .bss                i2c.o
    0x200000a0        -       0x00000058   Zero   RW          335    .bss                spi.o
    0x200000f8        -       0x00000090   Zero   RW          381    .bss                tim.o
    0x20000188        -       0x00000080   Zero   RW          446    .bss                usart.o
    0x20000208        -       0x00000402   Zero   RW         1187    .bss                esp8266.o
    0x2000060a   0x08003a70   0x00000006   PAD
    0x20000610        -       0x00000400   Zero   RW            1    STACK               startup_stm32f103xb.o


==============================================================================

Image component sizes


      Code (inc. data)   RO Data    RW Data    ZI Data      Debug   Object Name

       168         22          0          0         48       1817   adc.o
        76         14          0          0          0       1481   dht11.o
       940        266          0          0       1026      10219   esp8266.o
       240         16          0          4          0       1378   gpio.o
       176         30          0          0         84       1841   i2c.o
       542        182          0          0          0     459594   main.o
       376        252        267          0          0        682   mqtt.o
       562         16       2072          0          0       5030   oled.o
        16          6          0          0          0        468   process.o
       184         22          0          0         88       1829   spi.o
        36          8        236          0       1024        848   startup_stm32f103xb.o
       164         28          0         12          0       6273   stm32f1xx_hal.o
       612         24          0          0          0       3476   stm32f1xx_hal_adc.o
       198         14          0          0          0      29211   stm32f1xx_hal_cortex.o
       152          4          0          0          0       1191   stm32f1xx_hal_dma.o
       506         34          0          0          0       3681   stm32f1xx_hal_gpio.o
      1316         32          0          0          0       9583   stm32f1xx_hal_i2c.o
        60          8          0          0          0        962   stm32f1xx_hal_msp.o
      1272        100          0          0          0       5468   stm32f1xx_hal_rcc.o
       236         12          0          0          0       1476   stm32f1xx_hal_rcc_ex.o
       178          0          0          0          0       1323   stm32f1xx_hal_spi.o
      1278         58          0          0          0      13024   stm32f1xx_hal_tim.o
       104         12          0          0          0       1416   stm32f1xx_hal_tim_ex.o
      1178         10          0          0          0       9503   stm32f1xx_hal_uart.o
       100         30          0          0          0       5331   stm32f1xx_it.o
         2          0         24          4          0       1251   system_stm32f1xx.o
       376         54          0          0        144       3694   tim.o
       452         64          0          1        128       3943   usart.o

    ----------------------------------------------------------------------
     11538       1318       2632         24       2548     585993   Object Totals
         0          0         32          0          0          0   (incl. Generated)
        38          0          1          3          6          0   (incl. Padding)

    ----------------------------------------------------------------------

      Code (inc. data)   RO Data    RW Data    ZI Data      Debug   Library Member Name

         0          0          0          0          0          0   entry.o
         0          0          0          0          0          0   entry10a.o
         0          0          0          0          0          0   entry11a.o
         8          4          0          0          0          0   entry2.o
         4          0          0          0          0          0   entry5.o
         0          0          0          0          0          0   entry7b.o
         0          0          0          0          0          0   entry8b.o
         8          4          0          0          0          0   entry9a.o
        30          0          0          0          0          0   handlers.o
        36          8          0          0          0         68   init.o
        36          0          0          0          0         68   memcpya.o
        36          0          0          0          0        108   memseta.o
       522         20          0          0          0        336   printf3.o
         0          0          0          4          0          0   stdout.o
        36          0          0          0          0         80   strstr.o
        44          0          0          0          0         80   uidiv.o

    ----------------------------------------------------------------------
       762         36          0          4          0        740   Library Totals
         2          0          0          0          0          0   (incl. Padding)

    ----------------------------------------------------------------------

      Code (inc. data)   RO Data    RW Data    ZI Data      Debug   Library Name

       760         36          0          4          0        740   mc_w.l

    ----------------------------------------------------------------------
       762         36          0          4          0        740   Library Totals

    ----------------------------------------------------------------------

==============================================================================


      Code (inc. data)   RO Data    RW Data    ZI Data      Debug   

     12300       1354       2632         28       2548     580905   Grand Totals
     12300       1354       2632         28       2548     580905   ELF Image Totals
     12300       1354       2632         28          0          0   ROM Totals

==============================================================================

    Total RO  Size (Code + RO Data)                14932 (  14.58kB)
    Total RW  Size (RW Data + ZI Data)              2576 (   2.52kB)
    Total ROM Size (Code + RO Data + RW Data)      14960 (  14.61kB)

==============================================================================

